{
  "contractName": "Causas_Beneficas",
  "abi": [
    {
      "constant": false,
      "inputs": [
        {
          "internalType": "string",
          "name": "_name",
          "type": "string"
        },
        {
          "internalType": "uint256",
          "name": "_precioObjetivo",
          "type": "uint256"
        }
      ],
      "name": "crearCausa",
      "outputs": [],
      "payable": true,
      "stateMutability": "payable",
      "type": "function"
    },
    {
      "constant": false,
      "inputs": [
        {
          "internalType": "string",
          "name": "_name",
          "type": "string"
        },
        {
          "internalType": "uint256",
          "name": "_cantidad",
          "type": "uint256"
        }
      ],
      "name": "donar",
      "outputs": [
        {
          "internalType": "bool",
          "name": "",
          "type": "bool"
        }
      ],
      "payable": false,
      "stateMutability": "nonpayable",
      "type": "function"
    },
    {
      "constant": true,
      "inputs": [
        {
          "internalType": "string",
          "name": "_name",
          "type": "string"
        }
      ],
      "name": "limiteAlcanzado",
      "outputs": [
        {
          "internalType": "bool",
          "name": "",
          "type": "bool"
        },
        {
          "internalType": "uint256",
          "name": "",
          "type": "uint256"
        }
      ],
      "payable": false,
      "stateMutability": "view",
      "type": "function"
    }
  ],
  "bytecode": "0x60806040526000805534801561001457600080fd5b50610866806100246000396000f3fe6080604052600436106100345760003560e01c806345cd81b3146100395780636eeaa7c2146101235780639dbc76091461020a575b600080fd5b34801561004557600080fd5b506101096004803603604081101561005c57600080fd5b810190808035906020019064010000000081111561007957600080fd5b82018360208201111561008b57600080fd5b803590602001918460018302840111640100000000831117156100ad57600080fd5b91908080601f016020809104026020016040519081016040528093929190818152602001838380828437600081840152601f19601f820116905080830192505050505050509192919290803590602001909291905050506102cf565b604051808215151515815260200191505060405180910390f35b34801561012f57600080fd5b506101e96004803603602081101561014657600080fd5b810190808035906020019064010000000081111561016357600080fd5b82018360208201111561017557600080fd5b8035906020019184600183028401116401000000008311171561019757600080fd5b91908080601f016020809104026020016040519081016040528093929190818152602001838380828437600081840152601f19601f8201169050808301925050505050505091929192905050506103d2565b60405180831515151581526020018281526020019250505060405180910390f35b6102cd6004803603604081101561022057600080fd5b810190808035906020019064010000000081111561023d57600080fd5b82018360208201111561024f57600080fd5b8035906020019184600183028401116401000000008311171561027157600080fd5b91908080601f016020809104026020016040519081016040528093929190818152602001838380828437600081840152601f19601f8201169050808301925050505050505091929192908035906020019092919050505061052d565b005b60006102db838361060d565b6102e857600090506103cc565b816001846040518082805190602001908083835b6020831061031f57805182526020820191506020810190506020830392506102fc565b6001836020036101000a038019825116818451168082178552505050505050905001915050908152602001604051809103902060030154016001846040518082805190602001908083835b6020831061038d578051825260208201915060208101905060208303925061036a565b6001836020036101000a038019825116818451168082178552505050505050905001915050908152602001604051809103902060030181905550600190505b92915050565b6000806103dd610764565b6001846040518082805190602001908083835b6020831061041357805182526020820191506020810190506020830392506103f0565b6001836020036101000a038019825116818451168082178552505050505050905001915050908152602001604051809103902060405180608001604052908160008201548152602001600182018054600181600116156101000203166002900480601f0160208091040260200160405190810160405280929190818152602001828054600181600116156101000203166002900480156104f45780601f106104c9576101008083540402835291602001916104f4565b820191906000526020600020905b8154815290600101906020018083116104d757829003601f168201915b50505050508152602001600282015481526020016003820154815250509050806060015181604001511481606001519250925050915091565b60008081548092919060010191905055506040518060800160405280600054815260200183815260200182815260200160008152506001836040518082805190602001908083835b602083106105985780518252602082019150602081019050602083039250610575565b6001836020036101000a03801982511681845116808217855250505050505090500191505090815260200160405180910390206000820151816000015560208201518160010190805190602001906105f192919061078c565b5060408201518160020155606082015181600301559050505050565b6000610617610764565b6001846040518082805190602001908083835b6020831061064d578051825260208201915060208101905060208303925061062a565b6001836020036101000a038019825116818451168082178552505050505050905001915050908152602001604051809103902060405180608001604052908160008201548152602001600182018054600181600116156101000203166002900480601f01602080910402602001604051908101604052809291908181526020018280546001816001161561010002031660029004801561072e5780601f106107035761010080835404028352916020019161072e565b820191906000526020600020905b81548152906001019060200180831161071157829003601f168201915b50505050508152602001600282015481526020016003820154815250509050828160600151018160400151101591505092915050565b6040518060800160405280600081526020016060815260200160008152602001600081525090565b828054600181600116156101000203166002900490600052602060002090601f016020900481019282601f106107cd57805160ff19168380011785556107fb565b828001600101855582156107fb579182015b828111156107fa5782518255916020019190600101906107df565b5b509050610808919061080c565b5090565b61082e91905b8082111561082a576000816000905550600101610812565b5090565b9056fea265627a7a72315820e8a9503164cf302f20f5733bcfb961b896887564f263ecb7e210a732bc466a2564736f6c63430005100032",
  "source": "pragma solidity >=0.4.4 <0.7.0;\r\n\r\ncontract Causas_Beneficas{\r\n    struct Causa{\r\n        uint id;\r\n        string name;\r\n        uint precioObjetivo;\r\n        uint cantidad;\r\n    }\r\n\r\n    uint contadorCausas = 0;\r\n    mapping (string => Causa) causas;\r\n\r\n    // Creates a new cause\r\n    function crearCausa(string memory _name, uint _precioObjetivo) public payable {\r\n        contadorCausas++;\r\n        causas[_name] = Causa(contadorCausas, _name, _precioObjetivo, 0);\r\n    }\r\n\r\n    function _puedoDonar(string memory _name, uint _cantidad) private view returns(bool){\r\n        Causa memory _causa = causas[_name];\r\n        return _causa.precioObjetivo >= (_causa.cantidad + _cantidad);\r\n    }\r\n\r\n    // Triggers donation if goal is not exceeded\r\n    function donar(string memory _name, uint _cantidad) public returns(bool){\r\n        if(!_puedoDonar(_name, _cantidad)){\r\n            return false;\r\n        }else {\r\n            causas[_name].cantidad = causas[_name].cantidad + _cantidad;\r\n            return true;\r\n        }\r\n    }\r\n\r\n    // Checks causa goal status (achieved, remaining)\r\n    function limiteAlcanzado(string memory _name) public view returns(bool, uint){\r\n        Causa memory _causa = causas[_name];\r\n        return (_causa.precioObjetivo == _causa.cantidad, _causa.cantidad);\r\n    }\r\n}",
  "sourcePath": "C:\\Users\\lucas\\Documents\\Personal\\Technology\\Blockchain\\Udemy\\SmartContratcts y Blockchain con Solidity de la A a la Z\\Code\\solidity-udemy-course\\Bloque 1\\Propiedades de transacciones y bloques\\contracts\\causas_beneficas.sol",
  "compiler": {
    "name": "solc",
    "version": "0.5.16+commit.9c3226ce.Emscripten.clang"
  },
  "schemaVersion": "3.4.3",
  "updatedAt": "2021-10-01T02:55:27.406Z",
  "networkType": "ethereum",
  "devdoc": {
    "methods": {}
  },
  "userdoc": {
    "methods": {}
  }
}