{
  "contractName": "funciones_globales",
  "abi": [
    {
      "constant": true,
      "inputs": [],
      "name": "Now",
      "outputs": [
        {
          "internalType": "uint256",
          "name": "",
          "type": "uint256"
        }
      ],
      "payable": false,
      "stateMutability": "view",
      "type": "function"
    }
  ],
  "bytecode": "0x6080604052348015600f57600080fd5b5060868061001e6000396000f3fe6080604052348015600f57600080fd5b506004361060285760003560e01c806344d4fd1914602d575b600080fd5b60336049565b6040518082815260200191505060405180910390f35b60004290509056fea265627a7a723158202ed675f96d5934b1d15700dc11a5a2a1fde4463ca911c4a083bea47edad3119264736f6c63430005100032",
  "source": "pragma solidity >=0.4.4 <0.7.0;\r\n\r\ncontract funciones_globales {\r\n    function Now() public view returns(uint){\r\n        return now;\r\n    }\r\n}",
  "sourcePath": "C:\\Users\\lucas\\Documents\\Personal\\Technology\\Blockchain\\Udemy\\SmartContratcts y Blockchain con Solidity de la A a la Z\\Code\\solidity-udemy-course\\Bloque 1\\Propiedades de transacciones y bloques\\contracts\\funciones_globales.sol",
  "compiler": {
    "name": "solc",
    "version": "0.5.16+commit.9c3226ce.Emscripten.clang"
  },
  "schemaVersion": "3.4.3",
  "updatedAt": "2021-10-01T02:54:01.901Z",
  "devdoc": {
    "methods": {}
  },
  "userdoc": {
    "methods": {}
  }
}