{
  "contractName": "Keccak",
  "abi": [
    {
      "constant": true,
      "inputs": [
        {
          "internalType": "string",
          "name": "_cadena",
          "type": "string"
        }
      ],
      "name": "calcularHash",
      "outputs": [
        {
          "internalType": "bytes32",
          "name": "",
          "type": "bytes32"
        }
      ],
      "payable": false,
      "stateMutability": "pure",
      "type": "function"
    },
    {
      "constant": true,
      "inputs": [
        {
          "internalType": "string",
          "name": "_cadena",
          "type": "string"
        },
        {
          "internalType": "uint256",
          "name": "_k",
          "type": "uint256"
        },
        {
          "internalType": "address",
          "name": "_direccion",
          "type": "address"
        }
      ],
      "name": "calcularHash",
      "outputs": [
        {
          "internalType": "bytes32",
          "name": "",
          "type": "bytes32"
        }
      ],
      "payable": false,
      "stateMutability": "pure",
      "type": "function"
    }
  ],
  "bytecode": "0x608060405234801561001057600080fd5b506104a3806100206000396000f3fe608060405234801561001057600080fd5b50600436106100365760003560e01c80633d76e9091461003b578063aa458b2b1461006b575b600080fd5b6100556004803603610050919081019061017f565b61009b565b60405161006291906102e5565b60405180910390f35b610085600480360361008091908101906101c0565b6100cb565b60405161009291906102e5565b60405180910390f35b6000816040516020016100ae9190610295565b604051602081830303815290604052805190602001209050919050565b60008383836040516020016100e2939291906102ac565b6040516020818303038152906040528051906020012090509392505050565b60008135905061011081610432565b92915050565b600082601f83011261012757600080fd5b813561013a6101358261032d565b610300565b9150808252602083016020830185838301111561015657600080fd5b6101618382846103b5565b50505092915050565b60008135905061017981610449565b92915050565b60006020828403121561019157600080fd5b600082013567ffffffffffffffff8111156101ab57600080fd5b6101b784828501610116565b91505092915050565b6000806000606084860312156101d557600080fd5b600084013567ffffffffffffffff8111156101ef57600080fd5b6101fb86828701610116565b935050602061020c8682870161016a565b925050604061021d86828701610101565b9150509250925092565b6102386102338261036f565b6103f7565b82525050565b61024781610381565b82525050565b600061025882610359565b6102628185610364565b93506102728185602086016103c4565b80840191505092915050565b61028f61028a826103ab565b61041b565b82525050565b60006102a1828461024d565b915081905092915050565b60006102b8828661024d565b91506102c4828561027e565b6020820191506102d48284610227565b601482019150819050949350505050565b60006020820190506102fa600083018461023e565b92915050565b6000604051905081810181811067ffffffffffffffff8211171561032357600080fd5b8060405250919050565b600067ffffffffffffffff82111561034457600080fd5b601f19601f8301169050602081019050919050565b600081519050919050565b600081905092915050565b600061037a8261038b565b9050919050565b6000819050919050565b600073ffffffffffffffffffffffffffffffffffffffff82169050919050565b6000819050919050565b82818337600083830152505050565b60005b838110156103e25780820151818401526020810190506103c7565b838111156103f1576000848401525b50505050565b600061040282610409565b9050919050565b600061041482610425565b9050919050565b6000819050919050565b60008160601b9050919050565b61043b8161036f565b811461044657600080fd5b50565b610452816103ab565b811461045d57600080fd5b5056fea365627a7a72315820879fd00f9698d018e6556a07009745b91308726215266d3987314ee978f09c776c6578706572696d656e74616cf564736f6c63430005100040",
  "source": "pragma solidity >=0.4.4 <0.7.0;\r\npragma experimental ABIEncoderV2;\r\n\r\ncontract Keccak{\r\n\r\n    function calcularHash(string memory _cadena) public pure returns(bytes32){\r\n        return keccak256(abi.encodePacked(_cadena));\r\n    }\r\n\r\n    function calcularHash(string memory _cadena, uint _k, address _direccion) public pure returns(bytes32){\r\n        return keccak256(abi.encodePacked(_cadena, _k, _direccion));\r\n    }\r\n}",
  "sourcePath": "C:\\Users\\lucas\\Documents\\Personal\\Technology\\Blockchain\\Udemy\\SmartContratcts y Blockchain con Solidity de la A a la Z\\Code\\solidity-udemy-course\\Bloque 1\\Propiedades de transacciones y bloques\\contracts\\keccak.sol",
  "compiler": {
    "name": "solc",
    "version": "0.5.16+commit.9c3226ce.Emscripten.clang"
  },
  "schemaVersion": "3.4.3",
  "updatedAt": "2021-10-01T02:54:01.903Z",
  "devdoc": {
    "methods": {}
  },
  "userdoc": {
    "methods": {}
  }
}